S01800005465726D6F6D6574725F70616D6965632E737265637F
S11300009BC00000B6C00000B4C0000079C300006B
S113001095C20000AEC00000ACC0000025C30000C3
S1130020A8C00000A6C000000C9463100C94281112
S1130030A0C000009EC000009CC000009AC0000048
S113004098C00000ABC2000094C0000092C0000041
S113005090C0000052C200008CC000008AC00000A2
S113006088C0000086C0000084C0000082C0000078
S113007080C000007EC000007CC000007AC0000088
S1130080BDC2000076C0000074C0000072C0000051
S113009070C000006EC000006CC000006AC00000A8
S11300A068C0000066C0000064C000001C034C006F
S11300B05500460041002000430044004300200056
S11300C0440065006D006F000000180344006500E3
S11300D061006E002000430061006D006500720045
S11300E0610000000403090409023E00020100C08B
S11300F03209040000010202010005240010010479
S11301002402060524060001070582030800FF09EE
S1130110040100020A00000007050402100005079C
S11301200583021000051201100102000008EB0310
S1130130442001000102DC0111241FBECFEFDAE0EC
S1130140DEBFCDBF12E0A0E0B1E0E6E6F4E302C01A
S113015005900D92AE33B107D9F724E0AEE3B2E0D7
S113016001C01D92AE35B207E1F70E94CC130C9486
S1130170311A46CF40E250E060E270E08091000125
S1130180909101010E94671710925D02109266021D
S11301900895CF92DF92EF920F93CF93FC01809159
S11301A05E0290915F02892BF1F080916002909140
S11301B06102892B81F08091620290916302892B04
S11301C071F08091640290916502892B19F5C3E066
S11301D0A3E0B0E00BC0C1E0A1E0B0E007C0C2E022
S11301E0A2E0B0E003C0A0E0B0E0C0E061834083DF
S11301F022830383D6A2C5A2E482AA0FBB1FA25AFC
S1130200BD4FED93FC933596F0930101E09300010B
S1130210B1DF01C0CFEF8C2FCF910F91EF90DF9022
S1130220CF90089549D310925F0210925E0210920B
S113023061021092600210926302109262021092A4
S113024065021092640296CF823018F480935D02A6
S113025002C010925D02603118F460936602089542
S113026010926602089520915D02223098F4409124
S11302706602403178F450E1259F90011124240F47
S1130280311DFC01E20FF31F6083809166028F5FD2
S1130290809366020895CF92DF92EF92FF920F93BC
S11302A01F93CF93DF93EC0188E692E090930101D2
S11302B080930001C8808C2D992787FD90952B8110
S11302C0AC01420F511D841795070CF052C01C2D30
S11302D0F12EFC186981812FB7DFD9802D2D3327AA
S11302E027FD30958A81A901480F511D2417350730
S11302F084F50D2DCE0120E1F29E800D911D112477
S11303007C01802F8D190031ACF412309CF4002351
S11303108CF011237CF0F701E80FF11D65816E3537
S113032021F088E692E09FDF05C0809166028F5F2E
S1130330809366020F5F402F552747FD50958981B2
S11303402A8130E0280F311D87FD3A954217530763
S1130350C4F21F5F412F552747FD509588812B819B
S113036030E0280F311D87FD3A95421753070CF4EE
S1130370AFCFDF91CF911F910F91FF90EF90DF905E
S1130380CF900895CF93DF9300D01F92CDB7DEB7FF
S11303901B829091880220910201291709F472C0EE
S11303A0882309F444C08B81843008F040C0EB8179
S11303B0F0E0EE0FFF1FE25AFD4F80819181892BFF
S11303C079F1EB81F0E0EE0FFF1FE25AFD4F01904F
S11303D0F081E02D85A196A1892B69F0EB81F0E0F5
S11303E0EE0FFF1FE25AFD4F0190F081E02D05A0B2
S11303F0F6A1E02D0995EB81F0E0EE0FFF1FE25A24
S1130400FD4F0190F081E02D8481882349F0EB8138
S1130410F0E0EE0FFF1FE25AFD4F808191813BDF38
S11304208B818F5F8B838B81843008F4C0CF809164
S1130430880280FD23C0198289818230F8F4898181
S113044060E02AD21A828A81803190F4E9818A811B
S113045090E1E99FF0011124E80FF11DE859FD4FE7
S1130460808114D28A818F5F8A838A81803170F37C
S113047089818F5F89838981823008F38091880222
S1130480809302010F900F900F90DF91CF91089508
S1130490CF93DF93FC016081662351F0EC01219638
S11304A08091000190910101DEDE69916111F8CF24
S11304B0DF91CF910895529853986E98E9E6F0E051
S11304C08081806A8083EAE6F0E0808180628083B4
S11304D08CB38C648CBB8DB38C648DBB089581E02C
S11304E084BD85E085BD8BE987BD16BCA99AEEE67F
S11304F0F0E080818260808308951F920F920FB68E
S11305000F9211248F938EB381508EBB80918802F9
S11305108F5F80938802843610F010928802809155
S113052067028F5F809367028C3310F0109267022A
S11305308F910F900FBE0F901F9018951F920F92DE
S11305400FB60F9211248F93EF93FF93EB9882E0F1
S113055080931F0410923E02E1E8F0E010821092B2
S11305608500109284008DE08083FF91EF918F913C
S11305700F900FBE0F901F901895109281008AE182
S113058097EB9093890080938800109285001092D5
S1130590840082E086BB80936F0008951F920F92BF
S11305A00FB60F9211248F9380913E02882351F04D
S11305B010923E0281E080931F04E39AEB9A10921A
S11305C0810005C081E080933E0280933F028F91B9
S11305D00F900FBE0F901F9018951092910084ED0C
S11305E091E0909399008093980010929500109256
S11305F0940082E088BB8093710008951F920F924B
S11306000FB60F9211248F938CB384648CBB8DB37B
S113061084648DBBE39AEB9A109291008F910F90B2
S11306200FBE0F901F9018958091400282336CF09A
S1130630109240028091410287311CF010924102D5
S113064007C08F5F8093410203C0865F809340029E
S113065010923E02E1E8F0E01082109285001092C0
S113066084008DE0808308951F920F920FB60F923D
S113067011242F933F934F935F936F937F938F93A3
S11306809F93AF93BF93EF93FF93EE98CDDF84E0F6
S113069080931F048DE080939100FF91EF91BF91AF
S11306A0AF919F918F917F916F915F914F913F9106
S11306B02F910F900FBE0F901F90189580914002BC
S11306C081110FC082E38093400280914102811125
S11306D004C087E18093410207C0815080934102A6
S11306E003C08A508093400210923E02E1E8F0E099
S11306F0108210928500109284008DE0808308950A
S11307001F920F920FB60F9211242F933F934F9382
S11307105F936F937F938F939F93AF93BF93EF9365
S1130720FF93EA98CBDF84E080931F048DE08093ED
S11307309100FF91EF91BF91AF919F918F917F9124
S11307406F915F914F913F912F910F900FBE0F903A
S11307501F901895292F33272230310559F0233063
S1130760310569F02130310529F120E030E080E0E5
S113077090E029C02EE330E088EE90E024C0992771
S11307808130910559F08230910571F0892BB9F4CB
S1130790E4EEF0E0249130E0CF0115C0EAECF0E0A3
S11307A0249130E0CF010FC0ECEAF0E0249130E076
S11307B0CF0109C022E130E086E291E004C020E0EC
S11307C030E080E090E0FA0191838083822F932FC0
S11307D0089527982698259824985E9A5C9A83B160
S11307E0829581701D9982601E9984601F9988602A
S11307F08295807F5C985C9A93B1929591701D99D3
S113080092601E9994601F9998605C98892B089552
S11308105F98DFCF279A269A259A249A5E985C9A45
S1130820982F92959F7090FF02C02C9A01C02C982B
S113083091FF02C02D9A01C02D9892FF02C02E9AFA
S113084001C02E98987011F02F9A01C02F985C98CF
S11308505C9A80FF02C02C9A01C02C9881FF02C0D0
S11308602D9A01C02D9882FF02C02E9A01C02E98A5
S113087083FF02C02F9A01C02F985C98C9DF882398
S1130880ECF308955F98C6CF5F9AC4CF982F905821
S1130890983008F48770F8CF823031F0833031F02B
S11308A0813029F480E403C080E101C080E5605810
S11308B0860FE8CF81E0E6CF279A269A259A249AD4
S11308C0579A549A569A5F9A5C9A5E9A8FE59AEE72
S11308D00197F1F700C000005C985F985E985C9AFD
S11308E02C9A2D9A2E982F985C988FE090E401977B
S11308F0F1F700C000005C9A2C9A2D9A2E982F983C
S11309005C988FE891E00197F1F700C000005C9AD1
S11309102C9A2D9A2E982F985C988FE891E0019745
S1130920F1F700C000005C9A2C982D9A2E982F980D
S11309305C988FE891E00197F1F700C0000088E22D
S1130940A1DF88E09FDF8CE09DDF86E09BDFB2CFF4
S113095080911F04982F91709093D503982F9270D3
S11309609093FC0384708093AD030895DF92EF921B
S1130970FF920F931F93CF93DF93CDB7DEB76197A9
S11309800FB6F894DEBF0FBECDBF9091220480E075
S1130990209121047C01E22A86ED93E090930101E9
S11309A080930001E3FC05C00F2EF0E3DF2EF02D51
S11309B004C00F2EF5E3DF2EF02DDCDB60E080E0D9
S11309C043DC80912D041F928F9380912C041F92FD
S11309D08F9380912B041F928F93E0912A04F0E06F
S11309E0EE0FFF1FEF5FFE4F81818F9380818F9306
S11309F08DE291E09F938F938E010F5F1F4F1F93A2
S1130A000F930E946E17C80143DD60E081E01CDC97
S1130A100FB6F894DEBF0FBECDBFFF2054F1809116
S1130A202E041F928F9380912F041F928F93809195
S1130A3030041F928F931F928FED8F931F92DF923A
S1130A40F594E794F594E794F594E794F594E79492
S1130A50FF92EF9283E491E09F938F93C8019F9359
S1130A600F930E946E170FB6F894DEBF0FBECDBF72
S1130A702AC080912E041F928F9380912F041F927D
S1130A808F93809130041F928F931F928FED8F93D9
S1130A901F92DF92F594E794F594E794F594E79424
S1130AA0F594E794FF92EF928EE591E09F938F93F4
S1130AB0CE0101969F938F930E946E170FB6F89400
S1130AC0DEBF0FBECDBFCE010196E2DC61960FB64C
S1130AD0F894DEBF0FBECDBFDF91CF911F910F9170
S1130AE0FF90EF90DF9008951F93CF93DF93CDB7DE
S1130AF0DEB767970FB6F894DEBF0FBECDBF1A8A74
S1130B001B8A8FEF8C8B8D8B8E8B8F8B8DEF93E06D
S1130B1090930101809300011A8A8A89883108F030
S1130B2087C01B8A8B89863008F07BC08A892B8911
S1130B3090E0FC01EE0FFF1F8E0F9F1FFC01EE0FD4
S1130B40FF1FE20FF11DEE0FFF1FE757FD4F8081DE
S1130B5080FF60C02A899B898E894F8930E0D90142
S1130B60AA0FBB1F2A0F3B1FD901AA0FBB1FA90F36
S1130B70B11DAA0FBB1FA757BD4F90E0FC01EE0F9C
S1130B80FF1F8E0F9F1FFC01EE0FFF1FE40FF11DCF
S1130B90EE0FFF1FE757FD4F2D913C91808191810E
S1130BA08217930718F08E898F3F21F48A898E8BE0
S1130BB08B898F8B2A899B898C894D8930E0D90157
S1130BC0AA0FBB1F2A0F3B1FD901AA0FBB1FA90FD6
S1130BD0B11DAA0FBB1FA757BD4F90E0FC01EE0F3C
S1130BE0FF1F8E0F9F1FFC01EE0FFF1FE40FF11D6F
S1130BF0EE0FFF1FE757FD4F2D913C9180819181AE
S1130C002817390718F08C898F3F21F48A898C8B37
S1130C108B898D8B8B898F5F8B8B8B89863008F4C6
S1130C2085CF8A898F5F8A8B8A89883108F479CF46
S1130C30A1DA60E080E008DB8E898F3F09F458C0B8
S1130C408E892F8990E0FC01EE0FFF1F8E0F9F1FEE
S1130C50FC01EE0FFF1FE20FF11DEE0FFF1FE75720
S1130C60FD4F808183FD02C010E301C015E38E892E
S1130C703F892F894E891F929FED9F931F921F9347
S1130C8090E0FC01EE0FFF1F8E0F9F1FFC01EE0F83
S1130C90FF1FE30FF11DEE0FFF1FE757FD4F80818C
S1130CA09181929582958F7089279F7089279F9350
S1130CB08F93822F90E0880F991F9C01220F331F7E
S1130CC0220F331F820F931F9F938F931F924F9373
S1130CD088E791E09F938F93CE0101969F938F9322
S1130CE00E946E170FB6F894DEBF0FBECDBF0AC0C8
S1130CF081E1E1E9F1E0DE01119601900D928A951E
S1130D00E1F710E3CE010196C3DB60E081E09CDAF9
S1130D108C898F3F09F455C08C892D8990E0FC01A2
S1130D20EE0FFF1F8E0F9F1FFC01EE0FFF1FE20F40
S1130D30F11DEE0FFF1FE757FD4F808183FD15E383
S1130D408C893D892D894C891F929FED9F931F9219
S1130D501F9390E0FC01EE0FFF1F8E0F9F1FFC01FD
S1130D60EE0FFF1FE30FF11DEE0FFF1FE757FD4FBF
S1130D7080819181929582958F7089279F708927B0
S1130D809F938F93822F90E0880F991F9C01220FCD
S1130D90331F220F331F820F931F9F938F931F9232
S1130DA04F9382EA91E09F938F93CE0101969F9394
S1130DB08F930E946E170FB6F894DEBF0FBECDBF9F
S1130DC009C081E1EBEBF1E0DE01119601900D9297
S1130DD08A95E1F7CE0101965BDB67960FB6F8942E
S1130DE0DEBF0FBECDBFDF91CF911F910895EF926B
S1130DF0FF920F931F93CF93DF93CDB7DEB7619725
S1130E000FB6F894DEBF0FBECDBF80914102992783
S1130E1087FD90952091400237E62302312D11245D
S1130E203595359527FD3395FC01EE0FFF1F8E0F89
S1130E309F1FFC01EE0FFF1FE30FF11D37FDFA9515
S1130E40EE0FFF1FE757FD4F0081118178018EEAF5
S1130E5093E090930101809300018CD960E080E0DD
S1130E60F3D980E1ECECF1E0DE01119601900D92F2
S1130E708A95E1F7CE0101960BDB60E081E0E4D9CD
S1130E80C8018E7F892B09F465C003FD02C030E3DD
S1130E9001C035E3FF207CF120914002822F992785
S1130EA087FD90959F932F9320914102822F99273C
S1130EB087FD90959F932F931F928FED8F931F9291
S1130EC03F931595079515950795159507951595D0
S1130ED007951F930F938CED91E09F938F93CE0111
S1130EE001969F938F930E946E170FB6F894DEBFFE
S1130EF00FBECDBF4EC020914002822F992787FD9F
S1130F0090959F932F9320914102822F992787FDDB
S1130F1090959F932F931F928FED8F931F923F93E2
S1130F2015950795159507951595079515950795A5
S1130F301F930F9385EF91E09F938F93CE010196BA
S1130F409F938F930E946E170FB6F894DEBF0FBE67
S1130F50CDBF1FC020914002822F992787FD909515
S1130F609F932F9320914102822F992787FD90957B
S1130F709F932F938CE092E09F938F93CE010196E1
S1130F809F938F930E946E170FB6F894DEBF0FBE27
S1130F90CDBFCE0101967CDA61960FB6F894DEBF20
S1130FA00FBECDBFDF91CF911F910F91FF90EF90B6
S1130FB008953F924F925F926F927F928F929F9289
S1130FC0AF92BF92CF92DF92EF92FF920F931F9353
S1130FD0CF93DF93CDB7DEB728970FB6F894DEBF73
S1130FE00FBECDBF782E4B0148D3882309F404C12A
S1130FF0672DCE010196D2D22A8130E040E050E044
S113100060E070E080E090E008E00E944F17322E2C
S1131010432E542E652EB62FA72FF82FE92F2B81A0
S113102030E040E050E060E070E080E090E000E11B
S11310300E944F17A22EB32EC42ED52EE62EF72EC5
S1131040082F192F232D342D452D562D6B2F7A2F34
S11310508F2F9E2F0E945E17A980B12CC12CD12CFA
S1131060E12CF12C00E010E00E945E17322E432E9A
S1131070542E652EB62FA72FF82FE92F2C8130E0A0
S113108040E050E060E070E080E090E008E10E9421
S11310904F17A22EB32EC42ED52EE62EF72E082FD0
S11310A0192F232D342D452D562D6B2F7A2F8F2F4D
S11310B09E2F0E945E17322E432E542E652EB62F7D
S11310C0A72FF82FE92F2D8130E040E050E060E0B9
S11310D070E080E090E000E20E944F17A22EB32E51
S11310E0C42ED52EE62EF72E082F192F232D342D9E
S11310F0452D562D6B2F7A2F8F2F9E2F0E945E1712
S1131100322E432E542E652EB62FA72FF82FE92FFB
S11311102E8130E040E050E060E070E080E090E05C
S113112008E20E944F17A22EB32EC42ED52EE62E0F
S1131130F72E082F192F232D342D452D562D6B2FC7
S11311407A2F8F2F9E2F0E945E17322E432E542EFD
S1131150652EB62FA72FF82FE92F2F8130E040E01E
S113116050E060E070E080E090E000E30E944F1700
S1131170A22EB32EC42ED52EE62EF72E082F192F0D
S1131180232D342D452D562D6B2F7A2F8F2F9E2FE7
S11311900E945E17322E432E542E652EB62FA72F93
S11311A0F82FE92F288530E040E050E060E070E05F
S11311B080E090E008E30E944F17A22EB32EC42EC5
S11311C0D52EE62EF72E082F192F232D342D452D3D
S11311D0562D6B2F7A2F8F2F9E2F0E945E17F401AE
S11311E02083318342835383648375838683978307
S11311F0872D43D280E001C081E028960FB6F89491
S1131200DEBF0FBECDBFDF91CF911F910F91FF9035
S1131210EF90DF90CF90BF90AF909F908F907F9092
S11312206F905F904F903F900895EF92FF920F93CD
S11312301F93CF93DF93E82E8B011FD28823E9F00D
S11312408E2DA9D16E2D84E480D18E2D16D28E2DB3
S1131250A2D16E2D8EEB79D1E801F12C8E2D89D19E
S11312608993F39489E0F812F9CFF80180818E7F95
S113127080838E2D02D280E001C081E0DF91CF9186
S11312801F910F91FF90EF9008950F931F93CF93A9
S1131290DF93C82F062F142FD22FEFD1882391F07C
S11312A08C2F79D16C2F8EE450D16C2F802F4DD19F
S11312B06C2F812F4AD16C2F8D2F47D18C2FDDD1EC
S11312C080E001C081E0DF91CF911F910F910895DB
S11312D0BC0180E89EE30E943B17862F603148F0F2
S11312E0772760517109CB0199230CF401969595E8
S11312F087958093B800089584EA8093BC00ECEB52
S1131300F0E080818823ECF7089584E98093BC00A1
S1131310ECEBF0E0808184FFFDCF08958093BB0067
S113132084E88093BC00ECEBF0E080818823ECF748
S1131330089520E4829FC001112484689F6F8093E4
S1131340BC00ECEBF0E080818823ECF78091BB00DB
S11313500895FF920F931F93CF93DF93F82E062FD8
S1131360142FE901C9DF8F2DD9DF802FD7DF112397
S113137021F08991D3DF1150E1F7C7DFDF91CF91DD
S11313801F910F91FF900895EF92FF920F931F9377
S1131390CF93DF93082FF62E142FE901ADDF802FB2
S11313A0BDDF8F2DBBDFA8DF802F8F5FB7DF012F5D
S11313B00150112369F0FF24F394E12C1F2D011136
S11313C001C01E2D812FB5DF899301501111F6CF75
S11313D09CDFDF91CF911F910F91FF90EF900895C3
S11313E09DEC899F912D112496959695969540E1B3
S11313F0949F90011124990F392F330F330F930FBA
S1131400891B822B08950F931F93CF93DF9300D0F2
S113141000D0CDB7DEB78C01FC018081E1DF898388
S1131420F8018181DDDF8A83F8018281D9DF8B8332
S1131430F8018381D5DF8C839E012F5F3F4F44E009
S113144063E080ED86DF0F900F900F900F90DF9197
S1131450CF911F910F9108950F931F93CF93DF9313
S113146000D01F92CDB7DEB78C01FC018081B8DFBC
S11314708983F8018181B4DF8A83F8018281B0DF36
S11314808B839E012F5F3F4F43E060E080ED61DF7F
S11314900F900F900F90DF91CF911F910F910895AE
S11314A0982F92959F70990F292F220F220F920F38
S11314B08F70890F0895FF920F931F93CF93DF933B
S11314C000D000D0CDB7DEB79E012F5F3F4F44E080
S11314D063E080ED59DF8981E3DFF82E8A81E0DF64
S11314E0082F8B81DDDF182F8C81DADF982F6F2D89
S11314F0702F812F0F900F900F900F90DF91CF914D
S11315001F910F91FF9008950F931F93CF93DF9333
S113151000D01F92CDB7DEB79E012F5F3F4F43E04F
S113152060E080ED31DF8981BBDF082F8A81B8DF7D
S1131530182F8B81B5DF602F712F0F900F900F90B4
S1131540DF91CF911F910F9108951F93CF93DF9354
S1131550D82F162FC8E0D0FF03C0812F37D002C088
S1131560812F4FD0D695C150B1F7DF91CF911F9104
S113157008951F93CF93DF93182FD8E0C0E0C6954A
S1131580812F5BD08111C068D150C9F78C2FDF91B6
S1131590CF911F910895682F8CECD7CFFF920F93B2
S11315A01F93CF93DF93EC01F62E83E3CEDF8E01FE
S11315B0085F1F4F8F2DDDDF8993C017D107D1F747
S11315C0DF91CF911F910F91FF9008952FB7F89459
S11315D090B3982B90BB31B3982F9095392331BB9E
S11315E030E23A95F1F730B3932390BB91B3892B52
S11315F081BB8FEF90E00197F1F700C000002FBF8F
S113160008952FB7F89490B3982B90BB31B3982FCB
S11316109095392331BBEFEEF0E03197F1F700C03C
S1131620000030B3932390BB91B3892B81BBF5E3C6
S1131630FA95F1F700002FBF08952FB7F89490B3EF
S1131640982B90BB31B3982F9095392331BB30E25E
S11316503A95F1F730B3932390BB91B3982B91BB98
S113166090E39A95F1F79FB1EBEDF0E03197F1F744
S113167000C000002FBF892308952FB7F89490B3BA
S1131680982B90BB31B3982F9095392331BBEFE75A
S1131690F7E03197F1F700C0000030B3932390BB1B
S11316A091B3982B91BBE7E1F1E03197F1F700C0DA
S11316B000009FB1E7E6F6E03197F1F700C00000C3
S11316C02FBF909589230895CF93DF93EC01409623
S11316D0E82FF92F8BE0DF011D928A95E9F782E06C
S11316E08C83898783E08E8761E0CE010196C1D324
S11316F0882359F061E0CE010696BBD3882339F0E4
S113170061E0CE010B96B5D303C080E001C080E058
S1131710DF91CF9108950F931F93FB01BA0120919C
S113172035042430A9F4DC0154960D911D912D91BA
S11317303C915797012B022B032B61F011968C914E
S11317408F708093E90040E050E0CF01BED103C028
S113175082E001C082E01F910F910895CF93C62FBC
S1131760209135042430E9F4FC01448955896689C3
S11317707789452B462B472BB1F081818F7080935D
S1131780E9008091E80085FD08C0E8EEF0E0808182
S11317908E778083FAD3811107C0C093F10080E073
S11317A003C082E001C082E0CF910895FB01682F5D
S11317B084859585D3DF882319F02FEF3FEF02C08E
S11317C020E030E0822F932F0895209135042430B7
S11317D039F5FC014489558966897789452B462B5F
S11317E0472B01F181818F708093E9003091F300E0
S11317F02091F200932F80E0822B892BA9F0E8EE50
S1131800F0E0808190819E77908385FD0FC0BDD3E9
S113181081110DC0E8EEF0E090819E7790830895E9
S113182082E0089582E0089580E0089580E00895BC
S113183020913504243089F4FC0144895589668952
S11318407789452B462B472B41F021812F7020931C
S1131850E9002091E80020FDB8CF089520913504D7
S1131860243051F5FC014489558966897789452BD3
S1131870462B472B21F186818F708093E90080915C
S1131880E80082FF1FC03091F3002091F200932FF3
S113189080E0822B892B41F4E8EEF0E080818B77A5
S11318A0808320E030E010C09091F3008091F2003A
S11318B0392F20E0282B08C020E030E005C020E0CC
S11318C030E002C020E030E0822F932F0895209171
S11318D03504243079F5FC01448955896689778972
S11318E0452B462B472B49F186818F708093E90065
S11318F08091E80082FF24C03091F3002091F2002F
S1131900932F80E0822B892B21F02091F10030E08D
S113191002C02FEF3FEF5091F3004091F200952F5A
S113192080E0842B892B71F4E8EEF0E080818B77E2
S1131930808308C02FEF3FEF05C02FEF3FEF02C0B9
S11319402FEF3FEF822F932F0895FC018485958517
S1131950BEDF9C01992314F42EEF3FEF822F932FC7
S11319600895FB012EE0DB011D922A95E9F723E09F
S1131970238326ED3BE03187208725EA3CE033874B
S113198022879587848708950895CF93DF93EC0188
S11319908091E80083FF96C0888190E020913A040A
S11319A030913B042817390709F08CC08091370423
S11319B0813261F020F4803209F084C036C0823272
S11319C009F45FC0833209F07DC06EC08091360493
S11319D0813A09F077C0E8EEF0E08081877F808368
S11319E0808180FFFDCF4C895D896E897F89E1EF1D
S11319F0F0E04083BB27A72F962F852F8083CB0150
S1131A00AA27BB278083472F55276627772740833C
S1131A10888D8083898D80838A8D8083E8EEF0E0D1
S1131A2080818E7780838CD24DC080913604813240
S1131A3009F048C0E8EEF0E08081877F808305C02C
S1131A4080913504882309F43DC0808182FFF8CF5A
S1131A50E1EFF0E030812081908180813C8B2D8BFF
S1131A609E8B8F8B8081888F8081898F80818A8FE4
S1131A70E8EEF0E080818B77808362D2CE0184DF50
S1131A8021C0809136048132E9F4E8EEF0E08081EF
S1131A90877F808355D28091380490913904998B43
S1131AA0888BCE0171DF0EC080913604813251F4EF
S1131AB0E8EEF0E08081877F808342D26091380431
S1131AC0CE0162DFDF91CF9108957F928F929F9232
S1131AD0AF92BF92CF92DF92EF92FF920F931F9338
S1131AE0CF93DF937C01EB016A014FD2782E8111F1
S1131AF03EC0C114D10439F0F60120813181C21BEA
S1131B00D30BE20EF31E209791F100E010E00F2EAC
S1131B10F8EE8F2E912CF02D0F2EF1EFAF2EB12C6D
S1131B20F02DF401908195FD16C080818E7780831D
S1131B30C114D10461F0F60180819181080F191F4D
S1131B40118300830F2EF5E07F2EF02D10C01DD2DF
S1131B50882349F00BC0F70181917F01F50180834F
S1131B6021970F5F1F4F2097E1F601C0782E872D34
S1131B70DF91CF911F910F91FF90EF90DF90CF9065
S1131B80BF90AF909F908F907F900895CF92DF92F7
S1131B90EF92FF920F931F93CF93DF9320913C0416
S1131BA030913D042617370758F06115710539F453
S1131BB0E8EEF0E020812E7720839B0101C09B0199
S1131BC0E82EF92EE0E0A8EEB0E083EF90E062EFBB
S1131BD070E0DD24D394C12CC1EFD0E038C0409133
S1131BE03504442309F447C0453009F446C04C91F8
S1131BF043FD45C04C9142FD37C04C9140FF27C086
S1131C00FC015081FB014081152F00E0F801E42B19
S1131C10AF012115310599F04830510580F4EE2DBE
S1131C20FF2DF190F882EE2EFF2E215031094F5FE7
S1131C305F4F2115310519F04830510591F7ED2D0D
S1131C404830510509F0EC2D4C914E774C932115F9
S1131C50310529F6E111C3CF07C0809135048823EB
S1131C6081F0853019F40FC0E8EEF0E0808182FF46
S1131C70F4CF80E009C082E007C083E005C081E0C2
S1131C8003C082E001C083E0DF91CF911F910F91E7
S1131C90FF90EF90DF90CF900895AF92BF92DF92C4
S1131CA0EF92FF920F931F93CF93DF9320913C0405
S1131CB030913D042617370758F06115710539F442
S1131CC0E8EEF0E020812E7720839B0101C09B0188
S1131CD0E82FF92FF12CA8EEB0E003EF10E062EF4B
S1131CE070E0EE24E394D12C0F2EF1EFAF2EB12C43
S1131CF0F02D34C080913504882309F443C0853025
S1131D0009F442C08C9183FD41C08C9182FD33C0A3
S1131D108C9180FF23C0E8019881EB018881592FC1
S1131D2040E0EA01C82BCE012115310581F088304D
S1131D30910568F4F490E501F88231962150310957
S1131D4001962115310519F08830910599F7FE2C7B
S1131D50089709F0FD2C8C918E778C932115310511
S1131D6049F6F110C7CF07C080913504882381F06C
S1131D70853019F40FC0E8EEF0E0808182FFF4CFE3
S1131D8080E009C082E007C083E005C081E003C0B1
S1131D9082E001C083E0DF91CF911F910F91FF900A
S1131DA0EF90DF90BF90AF9008958F929F92BF9273
S1131DB0CF92DF92EF92FF920F931F93CF93DF9313
S1131DC0873070F126C0592F5F70E8015883891756
S1131DD031F0E901D8805081E401788103C05B2DA2
S1131DE0D62E7C2D51FF12C04C914E7F4C934081D6
S1131DF04D7F40834C9141604C93E901D8825083DC
S1131E00E4017883E7015881552344F49F5F9730B8
S1131E10D1F68F708093E90081E01FC080E01DC07F
S1131E20982F9F709093E900982F542FD62E70E02E
S1131E30ABEEB0E0EDEEF0E02CEE30E00F2EF0EF84
S1131E408F2E912CF02D0F2EFEEEEF2EF12CF02D77
S1131E5009EE10E0B42EC12CC5CFDF91CF911F91B4
S1131E600F91FF90EF90DF90CF90BF909F908F9055
S1131E7008959F92AF92BF92CF92DF92EF92FF921A
S1131E800F931F93CF93DF93C62E662309F447C0A5
S1131E90EC018C010C5F1F4FD12CB12C6894EE2403
S1131EA0E3F8F12C6894992491F80F2EF6E0AF2E04
S1131EB0F02D6881662359F1F8019081E981FA8156
S1131EC0D80111975C91862F8F70873050F592302E
S1131ED010F04A2D01C0492DE930F10548F0970171
S1131EE09B2D9F5F220F331F2E173F07D0F301C096
S1131EF09B2D9295907F492BF0E45F9F90011124D4
S1131F00661F6627661F622B50DF882361F0D39417
S1131F1025960B5F1F4FDC10CCCF81E005C081E01C
S1131F2003C080E001C080E0DF91CF911F910F9149
S1131F30FF90EF90DF90CF90BF90AF909F90089567
S1131F40809136048823B4F405C08091350481114E
S1131F5003C00895E8EEF0E0808182FFF6CFE8EE5A
S1131F60F0E080818B77808308958091350481111E
S1131F7003C00895E8EEF0E0808180FFF6CFE8EE3C
S1131F80F0E080818E77808308950F931F93CF9321
S1131F90DF932091E4003091E50065E6ACEEB0E01B
S1131FA0E8EEF0E00BEE10E044EE50E08C9180FDA2
S1131FB020C023C080913504882389F0853089F0BE
S1131FC0E801888185FD0FC0EA018881998128177D
S1131FD0390761F361509C0149F784E012C082E043
S1131FE010C083E00EC081E00CC080E00AC080E035
S1131FF008C0808180FFDECFF8CF808182FFDACFF6
S1132000F6CFDF91CF911F910F9108950F931F93F6
S1132010CF93DF934BD052D0C8EDD0E088818F7737
S1132020888388818068888388818F7D888319BCB0
S11320301092350410923104109233041092320439
S113204000EE10E0F80180818B7F808388818160BD
S1132050888342E060E080E0A8DEE1EEF0E0808189
S11320608E7F8083E2EEF0E08081816080838081D6
S113207088608083F80180818E7F8083888180617D
S11320808883DF91CF911F910F910895E8EDF0E0DF
S113209080818F7E8083E7EDF0E0808181608083A2
S11320A084E082BF81E080933404B0CFE8EDF0E0B7
S11320B080818E7F80831092E20008951092DA006E
S11320C01092E10008951F920F920FB60F921124FF
S11320D02F933F934F935F936F937F938F939F932C
S11320E0AF93BF93EF93FF938091E10082FF0AC007
S11320F08091E20082FF06C0E1EEF0E080818B7FF8
S113210080836AD28091DA0080FF1DC08091D8005C
S113211080FF19C0EAEDF0E080818E7F808380919A
S1132120D90080FF0CC080E189BD82E189BD09B47A
S113213000FEFDCF81E0809335048FD204C019BC2A
S1132140109235048BD28091E10080FF16C08091FB
S1132150E20080FF12C0E2EEF0E080818E7F808397
S1132160808180618083E8EDF0E0808180628083FB
S113217019BC85E0809335042FD28091E10084FF5F
S11321802FC08091E20084FF2BC080E189BD82E1F1
S113219089BD09B400FEFDCFE8EDF0E080818F7DBC
S11321A08083E1EEF0E080818F7E8083E2EEF0E0D8
S11321B080818F7E808380818160808380913104DF
S11321C0882321F084E08093350409C08091E300E2
S11321D0882314F483E001C081E080933504FCD1AA
S11321E08091E10083FF23C08091E20083FF1FC040
S11321F0E1EEF0E08081877F808382E08093350484
S11322001092310480818E7F8083E2EEF0E0808141
S11322108E7F808380818061808342E060E080E003
S1132220C4DDE0EFF0E0808188608083D5D1FF9148
S1132230EF91BF91AF919F918F917F916F915F913A
S11322404F913F912F910F900FBE0F901F901895B3
S11322501F920F920FB60F921124FF920F931F93A8
S11322602F933F934F935F936F937F938F939F939A
S1132270AF93BF93CF93DF93EF93FF938091E900E4
S11322808F709091EC0090FF02C090E801C090E044
S1132290F92EF82A09EE10E0F8011082C0EFD0E020
S11322A08881877F888378941ED0F8011082888182
S11322B0886088838F2D8F708083FF91EF91DF91E9
S11322C0CF91BF91AF919F918F917F916F915F91CA
S11322D04F913F912F911F910F91FF900F900FBE3F
S11322E00F901F9018950F931F93CF93DF93CDB743
S11322F0DEB7AC970FB6F894DEBF0FBECDBFE6E3F2
S1132300F4E0A1EFB0E08C91819324E0EE33F20786
S1132310D1F7A8D18091E80083FF39C190913604A8
S113232080913704853009F481C038F48130D1F1CB
S113233070F0833009F02BC135C0883009F4F5C042
S1132340893009F402C1863009F021C196C0903861
S113235021F0923809F01BC108C080913204909199
S11323603304992389F082600FC080913A049091DC
S11323703B048F709927E9EEF0E080838091EB00B5
S113238085FB882780F91082E8EEF0E09081977F42
S11323909083A1EFB0E08C931C9280818E77808330
S11323A0CFDDF5C0992309F401C1923009F0EFC0E3
S11323B002C191E0833009F090E0909333042DC082
S11323C080913A0490913B048F709927882309F4F3
S11323D0DEC08093E9002091EB0020FF1EC0209115
S11323E03704233031F4EBEEF0E0808180628083A7
S11323F014C0EBEEF0E090819061908321E030E036
S1132400A90102C0440F551F8A95E2F7AAEEB0E075
S11324104C931C928081886080831092E900E8EEDE
S1132420F0E08081877F80838BDDB1C09111AFC0E4
S113243080913804909139048F779927182FE3EE0F
S1132440F0E090819078892B8083E8EEF0E0808141
S1132450877F808375DDE8EEF0E0808180FFFDCF2B
S1132460E3EEF0E0808180688083112311F083E043
S113247001C082E0809335048AC09058923008F0FD
S113248086C080913804909139048C3D53E09507BF
S113249099F583E08A838AE289835FB7F894DE0141
S11324A0139620E03EE041E2E32FF0E04093570032
S11324B0849120FF03C082958F703F5F8F708A30B4
S11324C018F090E0C79602C090E0C0968D939D935B
S11324D02F5F243149F75FBF08EE10E0F8018081D7
S11324E0877F80836AE270E0CE0101964FDBF801BA
S11324F080818B7780834BC0AE01455D5F4F6091D7
S11325003A040E94AA03009709F441C008EE10E0BF
S1132510F8012081277F2083BC018BA59CA5BDDB0E
S1132520F80180818B77808332C0903881F5E8EEA2
S1132530F0E08081877F8083809131048093F10073
S113254080818E778083FCDC22C0911120C0809131
S113255038048230E0F4E8EEF0E08081877F808305
S11325608091380480933104EBDC8091310488231A
S113257021F084E08093350409C08091E30088232E
S113258014F484E001C081E08093350468D0809124
S1132590E80083FF16C0E8EEF0E08081877F808347
S11325A0EBEEF0E08081806280830BC09091380470
S11325B0913069F7FECE80913804882309F400CF66
S11325C02CCFAC960FB6F894DEBF0FBECDBFDF9113
S11325D0CF911F910F9108950895CF938091350461
S11325E08823A1F0C091E900CF708091EC0080FFB6
S11325F002C080E801C080E0C82B1092E9008091FD
S1132600E80083FD70DECF70C093E900CF91089598
S113261084B7877F84BF88E10FB6F8948093600005
S1132620109260000FBE90E080E80FB6F89480939B
S11326306100909361000FBE29DD209A289A559A73
S11326405D9A3F9A47980E945B020E946F020E9423
S1132650BD020E94ED020C9412010895089582E1D6
S113266091E032C882E191E090C9CF93DF9300D02A
S11326701F92CDB7DEB7FC011B821A82198270E06B
S113268089819A818617970770F49B818191890FBC
S11326908B8389819A8101969A83898389819A811E
S11326A08617970790F38B8180958B838B810F908E
S11326B00F900F90DF91CF9108959EE590934F0472
S11326C08093500462E08FE494E0CFDF8093510460
S11326D043E050E06FE474E082E191E01CC8669945
S11326E027C080913F02882319F18091590290916B
S11326F05A02A0915B02B0915C020196A11DB11D2A
S11327008093590290935A02A0935B02B0935C02A7
S113271088389341A105B105F0F10E941403109289
S1132720590210925A0210925B0210925C020895B0
S11327304A9927C080913F02882319F18091590258
S113274090915A02A0915B02B0915C020196A11D86
S1132750B11D8093590290935A02A0935B02B093E7
S11327605C0288389341A105B105A8F00E945E037C
S11327701092590210925A0210925B0210925C025B
S113278008951092590210925A0210925B0210920C
S11327905C0210923F020895CF93DF931F92CDB74E
S11327A0DEB782E492E090934E0480934D0485E07A
S11327B08EBB2EDF84E690E00E94680980E291E0FF
S11327C0E9E8F2E0DF019C011D9221503040E1F77D
S11327D00F2EF6EBCF2EF4E0DF2EF02DE12C02E0ED
S11327E020E140E060E081ED93E00E94C9000F2EFB
S11327F0F4E7CF2EF5E0DF2EF02D20E140E060E09D
S113280088EF93E00E94C9000F2EF7EFCF2EF6E079
S1132810DF2EF02D20E140E060E089EA93E00E94A1
S1132820C90081E080931F046BE472E082E191E0CF
S113283098D862E472E082E00E94D90781110EC048
S11328402FE14BEF6EE182E00E944509811106C041
S113285061E274E082E00E9415098111479A0E94A6
S1132860840A60932E0470932F04809330040E9492
S11328705B0A60932A0470932B0480932C04909336
S11328802D04789433243A94412C0F2EFFE38F2E99
S1132890F4E09F2EF02D0F2EFEE52F2EF02D0F2E9F
S11328A0FAE26F2EF4E07F2EF02D0F2EFDEC5F2E5A
S11328B0F02D0F2EF2E2CF2EF4E0DF2EF02D0EE2FB
S11328C014E00E94A80482E191E00E942E0C892B5E
S11328D009F447C282E191E00E94670C282FE42D9D
S11328E0F0E0E25CFB4F80833FE0341520F410926B
S11328F04A02412C02C0411007C02E35B9F581E0CF
S113290080934A02412C58C0A1E04A122FC0209162
S11329104A02213059F599278630910554F48430C0
S11329209105CCF482309105B1F06CF40197B9F4BF
S113293006C08630910559F0099789F40CC084E0EB
S11329408093110135C085E08093110131C083E08B
S1132950809311012DC081E08093110129C082E090
S11329608093110110924A02412C82C2E42CF12C72
S11329708091110190E00196E816F906CCF080915F
S11329804A02813009F074C2642D8EE394E06DDE56
S1132990F701E25CFB4F9081981304C082E08093BE
S11329A04A0266C210924A0282E080931101412CCD
S11329B080914A02813011F44394D3C1823009F0EA
S11329C0D0C1198210924A02F4018081843009F442
S11329D092C040F4823029F108F070C0813009F0CF
S11329E0BFC109C0863009F426C108F4DFC08930AC
S11329F009F0B6C175C1A0E4B4E08C91F8018083FC
S1132A00A1E4B4E08C9180932F04809142048093DC
S1132A103004C8010E942C0AF40180814EDE412C4E
S1132A20A0C10E94840A60932E0470932F048093A3
S1132A3030048981E82FF0E0E15BFB4F20828F5F57
S1132A4089838981E82FF0E0E15BFB4FD4019C91FD
S1132A5090838F5F89838981E82FF0E0E15BFB4FEE
S1132A60D8019C9190838F5F89838981E82FF0E05E
S1132A70E15BFB4F70838F5F89838981E82FF0E0EE
S1132A80E15BFB4F9091300490838F5F8983F980E1
S1132A9069818FE494E0E9DDEF2DF0E0E15BFB4F29
S1132AA0808389818F5F8983498150E06FE474E07A
S1132AB082E191E00E948B0B412C53C1E0E4F4E0ED
S1132AC08081D3018C93E1E4F4E08081ABE2B4E053
S1132AD08C9380914204ECE2F4E08083809143047F
S1132AE0ADE2B4E08C93C3010E94030AF401808137
S1132AF0E4DD412C36C10E945B0A60932A04709382
S1132B002B0480932C0490932D048981E82FF0E00A
S1132B10E15BFB4F20828F5F89838981E82FF0E09E
S1132B20E15BFB4FD4019C9190838F5F8983898102
S1132B30E82FF0E0E15BFB4FD3019C9190838F5F22
S1132B4089838981E82FF0E0E15BFB4F70838F5F1D
S1132B5089838981E82FF0E0E15BFB4FACE2B4E0CC
S1132B609C9190838F5F89838981E82FF0E0E15BFA
S1132B70FB4FADE2B4E09C9190838F5F8983F98031
S1132B8069818FE494E071DDEF2DF0E0E15BFB4FB0
S1132B90808389818F5F8983498150E06FE474E089
S1132BA082E191E00E948B0B412CDBC061E274E076
S1132BB082E00E9415098981E82FF0E0E15BFB4F78
S1132BC020828F5F89838981E82FF0E0E15BFB4FEE
S1132BD0D4019C9190838F5F89838981E1E2F4E041
S1132BE0908191609083E82FF0E0E15BFB4F90834C
S1132BF08F5F89838981E82FF0E0E15BFB4FD60189
S1132C009C9190838F5F8983F98069818FE494E03C
S1132C102CDDEF2DF0E0E15BFB4F808389818F5F3A
S1132C208983498150E06FE474E082E191E00E947D
S1132C308B0B412C96C08981E82FF0E0E15BFB4FC0
S1132C4020828F5F89838981E82FF0E0E15BFB4F6D
S1132C50B6E0B0838F5F89832981E1E4F4E0808169
S1132C6090E0A0E4B4E03C91359D312D11243695DB
S1132C7036953695FC01EE0FFF1F8E0F9F1FFC014A
S1132C80EE0FFF1FE30FF11DEE0FFF1FE757FD4F80
S1132C9080819181E22FF0E0E15BFB4F80832F5F25
S1132CA029838981E82FF0E0E15BFB4F90838F5FFC
S1132CB08983F98069818FE494E0D7DCEF2DF0E01B
S1132CC0E15BFB4F808389818F5F8983498150E079
S1132CD06FE474E082E191E00E948B0B412C41C0CF
S1132CE08981E82FF0E0E15BFB4F20828F5F8983CD
S1132CF08981E82FF0E0E15BFB4FB9E0B0838F5F9F
S1132D00898389818A30A8F480914D0490914E047E
S1132D10E9812981DC01A20FB11D12972C91F0E009
S1132D20E15BFB4F208329812F5F298329812A308E
S1132D3078F3F98069818FE494E097DCEF2DF0E07B
S1132D40E15BFB4F808389818F5F8983498150E0F8
S1132D506FE474E082E191E00E948B0B412C01C08E
S1132D60412C8EB3811118C00E94840A60932E04F2
S1132D7070932F04809330040E945B0A60932A04AA
S1132D8070932B0480932C0490932D0495B181E0CF
S1132D90892785B985E08EBBF8018081831539F0D8
S1132DA061E274E082E00E941509D8013C90209110
S1132DB02F04F8018081859D912D11249695969577
S1132DC09695990F392F330F330F930F382F391BE3
S1132DD0259D812D1124869586958695880F982F9B
S1132DE0990F990F890F922F981B832F892BB1F577
S1132DF08091300490E0259D212D1124269526955F
S1132E00269530E0FC01EE0FFF1FE80FF91FEE0FCF
S1132E10FF1FE20FF31FEE0FFF1FE757FD4F408127
S1132E2040FD1CC040912104FC01EE0FFF1F8E0FDA
S1132E309F1FFC01EE0FFF1F2E0F3F1FF901EE0F26
S1132E40FF1FE757FD4F842F8160D601BC90A12C52
S1132E509501282BC90191838083000040DC81E027
S1132E600E94C20182E191E00E94180CB6DB29CDD8
S1132E7080914A02A3CDAA1BBB1B51E107C0AA1F24
S1132E80BB1FA617B70710F0A61BB70B881F991F07
S1132E905A95A9F780959095BC01CD0108950F939B
S1132EA00F7351F0220F331F441F551F661F771FE6
S1132EB0881F991F0A95B1F70F9108952A0D3B1D9C
S1132EC04C1D5D1D6E1D7F1D801F911F0895DC012B
S1132ED001C06D9341505040E0F70895AEE0B0E07A
S1132EE0E3E7F7E195C20D891E8986E08C831A8396
S1132EF009838FEF9FE79E838D83CE014996AC01B2
S1132F006F89788DCE01019608D0EF81F885E00FA6
S1132F10F11F10822E96E4E097C2ACE0B0E0E2E943
S1132F20F7E168C27C016B018A01FC0117821682F9
S1132F30838181FFB9C188248394912C8C0E9D1EBA
S1132F40F7019381F60193FD859193FF81916F01C0
S1132F50882309F4A5C1853239F493FD859193FF43
S1132F6081916F01853221F4B70190E0B9D1E8CFA6
S1132F70512C312C20E02032A8F48B3261F028F45B
S1132F80803251F0833271F40BC08D3239F08033CA
S1132F9049F4216028C02260246025C0286023C031
S1132FA0206121C027FD27C0382F30533A3078F4F0
S1132FB026FF06C0FAE05F9E300D1124532E13C085
S1132FC08AE0389E300D1124332E20620CC08E32DC
S1132FD021F426FD65C1206406C08C3611F42068F6
S1132FE002C0883641F4F60193FD859193FF8191E7
S1132FF06F018111C0CF982F9554933018F09052DF
S1133000933028F40C5F1F4FFFE3F9830DC0833620
S113301031F0833771F0833509F05AC022C0F801CA
S1133020808189830E5F1F4F44244394512C5401A3
S113303014C03801F2E06F0E711CF801A080B18059
S113304026FF03C0652D70E002C06FEF7FEFC5015E
S11330502C873BD12C0183012C856FE7262E22225D
S113306017C03801F2E06F0E711CF801A080B18026
S113307026FF03C0652D70E002C06FEF7FEFC5012E
S11330802C8718D12C012C8550E8252E222A830167
S113309023FC1AC005C0B70180E290E021D13A9424
S11330A0832D90E048165906B0F30EC0F50127FCB5
S11330B0859127FE81915F01B70190E011D1311014
S11330C03A94F1E04F1A51084114510479F7E5C0DC
S11330D0843611F0893639F5F80127FF07C060817D
S11330E07181828193810C5F1F4F08C0608171815F
S11330F0882777FD8095982F0E5F1F4F4FE6B42EDB
S1133100B22297FF09C090958095709561957F4F85
S11331108F4F9F4FF0E8BF2A2AE030E0A4010CD182
S1133120A82EA81842C0853731F43FEEB32EB22240
S11331302AE030E024C099EFB92EB2228F36B9F0DC
S113314020F4883509F0ACC00DC0803721F08837F1
S113315009F0A6C002C020E1B22AB4FE0BC084E08C
S1133160B82A08C024FF09C0E6E0BE2A06C028E049
S113317030E005C020E130E002C020E132E0F80197
S1133180B7FE07C060817181828193810C5F1F4FFC
S113319006C06081718180E090E00E5F1F4FA40142
S11331A0CBD0A82EA818FFE7BF22B6FE0BC02B2D4C
S11331B02E7FA51450F4B4FE0AC0B2FC08C02B2D17
S11331C02E7E05C07A2C2B2D03C07A2C01C0752CC1
S11331D024FF0DC0FE01EA0DF11D8081803311F43E
S11331E0297E09C022FF06C07394739404C0822F01
S11331F0867809F0739423FD13C020FF0EC05A2C67
S1133200731458F4530C5718732C07C0B70180E299
S113321090E02C8765D073942C857314B8F304C0A4
S1133220731410F4371801C0312C24FF11C0B701F6
S113323080E390E02C8754D02C8522FF1CC021FF12
S113324003C088E590E002C088E790E0B7010CC0B5
S1133250822F867881F021FD02C080E201C08BE2DA
S113326027FD8DE2B70190E03BD005C0B70180E3B4
S113327090E036D05A94A514C8F3AA94F401EA0D48
S1133280F11DB701808190E02BD0A110F6CF05C0CD
S1133290B70180E290E024D03A943110F9CF50CEB7
S11332A0F7012681378102C02FEF3FEFC9012C9629
S11332B0E2E1BCC0FC010590615070400110D8F7F8
S11332C0809590958E0F9F1F0895FC01615070406A
S11332D001900110D8F7809590958E0F9F1F089547
S11332E00F931F93CF93DF938C01EB018B8181FDAF
S11332F003C00FEF1FEF1AC082FF0DC02E813F8164
S11333008C819D812817390764F4E881F981019340
S1133310F983E88306C0E885F985802F0995892B10
S113332041F78E819F8101969F838E83C801DF912F
S1133330CF911F910F910895FA01AA27283051F1D6
S1133340203181F1E8946F936E7F6E5F7F4F8F4FD2
S11333509F4FAF4FB1E03ED0B4E03CD0670F781F31
S1133360891F9A1FA11D680F791F8A1F911DA11D16
S11333706A0F711D811D911DA11D20D009F468944F
S11333803F912AE0269F11243019305D3193DEF6F7
S1133390CF010895462F4770405D4193B3E00FD0AD
S11333A0C9F7F6CF462F4F70405D4A3318F0495D98
S11333B031FD4052419302D0A9F7EACFB4E0A6957B
S11333C09795879577956795BA95C9F7009761059D
S11333D0710508959B01AC010A2E069457954795F3
S11333E037952795BA95C9F7620F731F841F951FE8
S11333F0A01D08952F923F924F925F926F927F92F9
S11334008F929F92AF92BF92CF92DF92EF92FF92F0
S11334100F931F93CF93DF93CDB7DEB7CA1BDB0B9C
S11334200FB6F894DEBF0FBECDBF09942A88398841
S113343048885F846E847D848C849B84AA84B98448
S1133440C884DF80EE80FD800C811B81AA81B98154
S1133450CE0FD11D0FB6F894DEBF0FBECDBFED0168
S10934600895F894FFCF6B
S11334666802FF2102250229022D023102350239A2
S1133476020200831000000104100000018208000B
S11334860001000000000000000000000025732079
S113349620202020253032692F253032692F25300F
S11334A6326900253032692E2563256343202025A1
S11334B63032693A253032693A253032690025308E
S11334C632692E256325634320253032693A253037
S11334D632693A25303269004D61782025303269E7
S11334E63A2530326920253032692E256325634317
S11334F6004D61782020202020204E4F2044415446
S113350641004D696E20253032693A2530326920F2
S1133516253032692E2563256343004D696E2020CC
S1133526202020204E4F20444154410054656D70A4
S113353620202020202020486F7572002530326913
S11335462E25632563432020202020253032693A26
S11335562530326900253032692E256325634320E0
S11335662020253032693A25303269004E4F2044F6
S113357641544120402020253032693A25303269B1
S1133586004D6F6E00547565005765640054687588
S111359600467269005361740053756E0000A4
S9030000FC
